:0200000058287E
:10000800FF00030E8301A4000A08A5008A017008F6
:10001800A00014300C05F000031916281A08A100D6
:10002800DF308C052008F00025088A00240E8300A4
:06003800FF0E7F0E09001F
:0E003E008312031323088A00220882000800A0
:10004C001F208A110A128000840AA20A0319A30A2B
:08005C00F003031D2628080033
:10006400831203132608FA3C031C3A282608950039
:02007400080082
:10007600831603138717BF3087052030980090300A
:10008600831298000C30831699008C16C0308B04AE
:02009600080060
:100098000C3083120313970006309200FA3083164F
:0800A8009200FB3087050800FF
:1000B00083120313A101831686018312870186012F
:1000C0003B204C2083122108FB3A031D6A2886013D
:1000D000A60132202108FD3A031D70280630860053
:1000E0002108FC3A031D7628093086002108FF3AD2
:1000F000031D7C28053086002108FE3A031D822856
:0E0100000A3086002108A600322062288628D8
:02400E004A2F37
:00000001FF
